:020000040800F2
:1000000000000220F9170008010900080309000890
:100010000509000807090008090900080000000098
:100020000000000000000000000000000B090008B4
:100030000D090008000000000F0900081109000860
:10004000491800084918000849180008491800080C
:1000500049180008491800084918000849180008FC
:1000600049180008491800084918000849180008EC
:1000700049180008491800084918000849180008DC
:100080004918000849180008491800080000000035
:1000900000000000000000000000000049180008F7
:1000A00049180008491800084918000849180008AC
:1000B000491800084918000849180008491800089C
:1000C000491800084918000849180008491800088C
:1000D000491800081509000821090008000000005F
:1000E00049180008491800084918000800000000D5
:1000F0000000000000000000000000004918000897
:1001000000000000491800084918000849180008B4
:1001100000000000000000000000000000000000DF
:10012000491800084918000849180008491800082B
:100130004918000800000000000000000000000056
:100140000000000000000000000000004918000846
:1001500049180008491800084918000849180008FB
:1001600049180008491800080000000000000000BD
:10017000000000000000000000000000000000007F
:100180000000000049180008000000000000000006
:08019000491800084918000895
:1001A00010B5054C237833B9044B13B10448AFF3B1
:1001B00000800123237010BD7000002000000000AB
:1001C000EC20000808B5034B1BB103490348AFF30B
:1001D000008008BD0000000074000020EC20000832
:1001E00001F0FF01102A2BDB10F0070F08D010F8E8
:1001F000013B013A8B422DD010F0070F42B3F6D1EC
:10020000F0B441EA012141EA014122F007047FF004
:1002100000070023F0E80256083C85EA010586EA5B
:10022000010685FA47F5A3FA87F586FA47F6A5FA97
:1002300087F68EB9EED1F0BC01F0FF0102F00702A3
:1002400032B110F8013B013A83EA010313B1F8D14E
:100250000020704701387047002D06BF354603382F
:10026000073815F0010F07D1013015F4807F02BF68
:10027000013015F4C03F0130F0BC0138704700BFB9
:1002800053B94AB9002908BF00281CBF4FF0FF31FD
:100290004FF0FF3000F07AB9ADF1080C6DE904CEF3
:1002A00000F006F8DDF804E0DDE9022304B0704751
:1002B0002DE9F0478C460D460446089E002B51D18F
:1002C0008A4217466DD9B2FA82FEBEF1000F0BD0FA
:1002D000CEF1200C01FA0EF520FA0CFC02FA0EF712
:1002E0004CEA050C00FA0EF44FEA174A250CBCFB49
:1002F000FAF81FFA87F90AFB18CC45EA0C4508FB07
:1003000009F3AB420AD9ED1908F1FF3280F02381DD
:10031000AB4240F22081A8F102083D44ED1AA4B29C
:10032000B5FBFAF00AFB105544EA054400FB09F955
:10033000A14509D9E41900F1FF3380F00A81A145F4
:1003400040F2078102383C44A4EB090440EA08402B
:100350000021002E61D024FA0EF400233460736073
:10036000BDE8F0878B4207D9002E54D0002186E8E3
:1003700021000846BDE8F087B3FA83F1002940F078
:100380008E80AB4202D3824200F2FA80841A65EB7F
:1003900003050120AC46002E3FD086E81010BDE8D2
:1003A000F08712B90127B7FBF2F7B7FA87FEBEF163
:1003B000000F34D1EB1B3A0C1FFA87FC0121B3FB71
:1003C000F2F8250C02FB183345EA03450CFB08F351
:1003D000AB4207D9ED1908F1FF3002D2AB4200F26F
:1003E000D1808046ED1AA3B2B5FBF2F002FB1055A6
:1003F00043EA05440CFB00FCA44507D9E41900F1CD
:10040000FF3302D2A44500F2B8801846A4EB0C04D6
:1004100040EA08409DE731463046BDE8F087CEF11E
:10042000200405FA0EF307FA0EF720FA04F83A0C46
:1004300025FA04F448EA0308B4FBF2F14FEA184540
:1004400002FB11441FFA87FC45EA044501FB0CF34B
:10045000AB4200FA0EF409D9ED1901F1FF3080F03A
:100460008A80AB4240F2878002393D44EB1A1FFA82
:1004700088F5B3FBF2F002FB103345EA034500FBBD
:100480000CF3AB4207D9ED1900F1FF386FD2AB4244
:100490006DD902383D44EB1A40EA01418FE7C1F1C2
:1004A000200722FA07F88B4005FA01F448EA030313
:1004B00020FA07FE4FEA134CFD404EEA040EB5FB4E
:1004C000FCF94FEA1E440CFB19551FFA83F844EA65
:1004D000054509FB08F4AC4202FA01F200FA01FA00
:1004E00008D9ED1809F1FF3043D2AC4241D9A9F146
:1004F00002091D442D1B1FFA8EFEB5FBFCF00CFB00
:1005000010554EEA054400FB08F8A04507D9E41849
:1005100000F1FF3529D2A04527D902381C4440EA12
:100520000940A4EB0804A0FB02894C45C6464D4691
:1005300015D312D056B1BAEB0E0364EB050404FADE
:1005400007F7CB401F43CC40376074600021BDE803
:10055000F0871846F8E69046E0E6C245EAD2B8EBE6
:10056000020E69EB03050138E4E72846D7E7404669
:1005700091E78146BEE7014678E702383C4445E70B
:10058000084608E7A8F102083D442BE7704700BF82
:1005900030B595B03022002108A801F081F9002182
:1005A000142203A801F07CF900241B4B01941A6C5F
:1005B00042F080521A641B6C03F080530193019B3C
:1005C000164B02941A6842F440421A601B680F945A
:1005D00003F440430293029B01230B9310230C93DB
:1005E0000823109364230225119308A8042313936E
:1005F00008950E95129500F093FB0F2303930321AA
:100600004FF4805303A8049505940693079400F0D3
:1006100037FD15B030BD00BF00380240007000400B
:1006200080B58AB000F0E6F9FFF7B2FF142200218E
:100630000DEB020001F034F900243F4B01941A6BDA
:100640003E483F4D42F004021A631A6B02F0040266
:100650000192019A02941A6B42F080021A631A6B9B
:1006600002F080020292029A03941A6B42F0010295
:100670001A631A6B02F001020392039A04941A6B34
:1006800042F002021A631B6B03F00203224604933A
:100690002021049B00F03EFB4FF40053059305A975
:1006A000284B29480693079400F05EFA202305A9F9
:1006B00005932248079401230693089400F054FA06
:1006C0002248234B84600C264FF4165780E888009C
:1006D000C460046146618461C46100F0DBFE1D4BAF
:1006E000AC60284685E88800EC602C616E61AC61E6
:1006F000EC6100F0CFFE29461748174D174E184CF5
:1007000000F038F8284600F049F80746284600F07F
:1007100047F83A4603463146204601F0C9F8114BE6
:1007200082B2214609481A8000F03FFF4FF47A70E8
:1007300000F08CF9E6E700BF0038024000000240FC
:100740009C00002000002110000802402C01002025
:100750000044004000100140DC000020042100089B
:10076000F80000208C0000200146014800F01AB873
:10077000DC00002038B505462C46084644F8081B26
:100780001E231322044900F0B3FE214628680A22E2
:10079000BDE8384000F028BF0D2100088088704770
:1007A000C088704703460068884210B412D15A7A54
:1007B000C02A08D10A2459899A8991FBF4F192FB45
:1007C000F4F29980DA800A2203F108015DF8044B03
:1007D00000F00ABF5DF8044B7047000007B50E4BF0
:1007E000002100915A6C42F480425A645A6C02F41F
:1007F00080420092009A01911A6C42F080521A6471
:100800001B6C03F0805301930720019B00F032F929
:1008100003B05DF804FB00BF0038024010B514229D
:100820008AB0044600210DEB020001F039F823687C
:100830002F4A93422ED12F4B2F48002401945A6CFB
:1008400042F010025A645A6C02F010020192019AAE
:1008500002941A6B42F001021A631B6B03F001034E
:100860000293029B4FF4C063059302230693012376
:1008700007930323089305A90723099300F074F94C
:1008800025202246214600F007F9252000F038F9FE
:100890000AB010BD194A9342FAD1164B16480024EB
:1008A00003941A6C42F400321A641A6C02F4003297
:1008B0000392039A04941A6B42F001021A631B6BB1
:1008C00003F001030493049B0C2305930223069376
:1008D000012307930323089305A90723099300F035
:1008E00043F926202246214600F0D6F82620CDE7FF
:1008F0000010014000380240000002400044004067
:100900007047FEE7FEE7FEE7FEE770477047704777
:1009100000F08AB8014800F0C7BE00BF9C0000206C
:10092000014800F0C1BE00BF2C01002008B50A4BF1
:100930001968024609B909491960186869460244EC
:100940008A4206D900F082FF0C2303604FF0FF308B
:1009500008BD1A6008BD00BF90000020740100208F
:100960000F49D1F8883043F47003C1F888300D4B3B
:100970001A68002042F001021A6098601A6822F09A
:10098000847222F480321A60074A5A601A6822F48C
:1009900080221A60D8604FF000638B60704700BF00
:1009A00000ED00E0003802401030002438B50E4A57
:1009B0000E4B054618784FF47A73B3FBF0F31068CA
:1009C000B0FBF3F000F0A8F8044658B90F2D09D891
:1009D000024629464FF0FF3000F05EF8044B2046F7
:1009E0001D6038BD012038BD00000020040000203B
:1009F0000800002008B50B4B1A6842F400721A6018
:100A00001A6842F480621A601A6842F480721A60AE
:100A1000032000F02FF80020FFF7C8FFFFF7DEFEED
:100A2000002008BD003C0240034A044B11681B78BB
:100A30000B441360704700BF6C01002004000020CD
:100A4000014B1868704700BF6C01002038B50446A0
:100A5000FFF7F6FF631C1CBF054B1B78054618BF4C
:100A6000E418FFF7EDFF401B8442FAD838BD00BF01
:100A700004000020074AD36823F4E0631B041B0C26
:100A800043F0BF63000243F4003300F4E06003432B
:100A9000D360704700ED00E0174B30B5DC68C4F35D
:100AA0000224C4F10703251D042B28BF0423062DAF
:100AB0004FF0010505FA03F303F1FF338CBF033C4C
:100AC00000241940A14005FA04F4013C224000280A
:100AD00042EA01024FEA0212AFBF00F1604000F0AB
:100AE0000F00064BD2B2A5BF00F56140D2B21A5436
:100AF00080F8002330BD00BF00ED00E014ED00E001
:100B00004209012300F01F0003FA00F0014B43F8F3
:100B10002200704700E100E00138B0F1807F0AD286
:100B2000064B074A5860F02182F823100020072264
:100B300098601A6070470120704700BF10E000E025
:100B400000ED00E090F83530022B03D080234365A0
:100B5000012070470268052380F83530136823F0C0
:100B600001031360002070472DE9F04F85B00B683A
:100B7000DFF89C81644A01934FF001090023019C36
:100B800009FA03F707EA0406B74240F0AD804C6863
:100B900024F0100ABAF1020F16D14FEAD30C00EB81
:100BA0008C0C03F0070BDCF820504FEA8B0B4FF056
:100BB0000F0E0EFA0BFE25EA0E0E0D6905FA0BF567
:100BC00045EA0E05CCF820504FEA430C0325D0F837
:100BD00000B005FA0CF5ED4304F0030E0BEA050B2B
:100BE0000EFA0CFE0AF1FF3A4EEA0B0EBAF1010FB3
:100BF0000095C0F800E015D8D0F808E005EA0E0E20
:100C0000CD6805FA0CFA4AEA0E0EC0F808E0D0F8F2
:100C100004E02EEA0707C4F3001E0EFA03FE4EEAB4
:100C200007074760C768009D3D408F6807FA0CF7CB
:100C30003D43C560E50057D54FF0000BCDF80CB033
:100C4000D8F84470314D47F48047C8F84470D8F85C
:100C5000447007F480470397039F23F0030707F1CD
:100C6000804707F59C3703F0030CD7F808A04FEA3C
:100C70008C0C4FF00F0E0EFA0CFEA8422AEA0E0E54
:100C800039D005F58065A84237D005F58065A842C2
:100C900035D005F58065A84233D005F58065A842BA
:100CA00014BF0725042505FA0CF545EA0E05BD60BD
:100CB0001568F74314F4803F0CBF3D403543156081
:100CC000556814F4003F0CBF3D40354355609568AE
:100CD00014F4801F0CBF3D4035439560D568A402D5
:100CE00054BF3D403543D5600133102B7FF447AFEF
:100CF00005B0BDE8F08F5D46D5E70125D3E70225B5
:100D0000D1E70325CFE700BF003C014000000240CF
:100D1000003802400AB1816170470904FBE7000016
:100D20002DE9F341044618B9012002B0BDE8F08175
:100D30000368DD0710D42368980758D423681A077E
:100D400000F19A8023685B0700F1B880A269002A4D
:100D500040F019810020E8E7A64B9A6802F00C02E7
:100D6000042A07D09A6802F00C02082A0AD15B68AC
:100D7000590207D59F4B1B689A03DCD56368002B8B
:100D8000D9D1D1E763689B4DB3F5803F11D12B6872
:100D900043F480332B60FFF753FE964D06462B68D5
:100DA0009B03C8D4FFF74CFE801B6428F7D90320AF
:100DB000BBE7B3F5A02F04D12B6843F480232B604D
:100DC000E5E72A6822F480322A602A6822F4802229
:100DD0002A60002BDFD1FFF733FE06462B689F0306
:100DE000A9D5FFF72DFE801B6428F7D9DFE7814BDB
:100DF0009A6812F00C0F07D09A6802F00C02082AC9
:100E000011D15B685E020ED47A4B1A68950702D541
:100E1000E268012A88D11A68216922F0F80242EAC0
:100E2000C1021A608AE7E268734BB2B101221A600C
:100E3000FFF706FE6F4D06462B68980707D52B680F
:100E4000226923F0F80343EAC2032B6076E7FFF739
:100E5000F7FD801B0228EFD9A9E71A60FFF7F0FD24
:100E6000644D06462B6899077FF568AFFFF7E8FDEC
:100E7000801B0228F6D99AE76269604B7AB1012299
:100E80001A60FFF7DDFD5B4D06466B6F9F073FF570
:100E900059AFFFF7D5FD801B0228F6D987E71A6006
:100EA000FFF7CEFD534D06466B6F98077FF54AAFAF
:100EB000FFF7C6FD801B0228F6D978E74D4B1A6C68
:100EC00012F0805228D101921A6C42F080521A64BA
:100ED0001B6C03F080530193019B0126484D2B6846
:100EE000D9051BD5A368434D012B27D12B6F43F0A8
:100EF00001032B67FFF7A4FD3E4D074641F28838FA
:100F00002B6F9B0739D5002E3FF420AF394A136C65
:100F100023F08053136419E70026DFE72B6843F4BE
:100F200080732B60FFF78CFD07462B68DA05D9D458
:100F3000FFF786FDC01B0228F7D938E7052B04D13F
:100F40002B6F43F004032B67D0E72A6F22F00102D6
:100F50002A672A6F22F004022A67002BCAD1FFF702
:100F60006FFD41F2883807462B6F9807CBD5FFF706
:100F700067FDC01B4045F7D919E7FFF761FDC01BAE
:100F80004045BDD913E71B4DAB6803F00C03082B9C
:100F90003FF4CAAE1B4E0023022A336034D1FFF760
:100FA0004FFD07462B6899011ED4226AE36913435B
:100FB000626A43EA8213E26A43EA0263A26A0D4C60
:100FC0005208013A43EA02436B6001233360FFF7A2
:100FD00037FD054623689A013FF5BCAEFFF730FDAB
:100FE000401B0228F6D9E2E6FFF72AFDC01B0228C3
:100FF000D8D9DCE60038024000004742800E474264
:101000000070004060004742FFF71AFD04462B685D
:101010009B017FF59FAEFFF713FD001B0228F6D959
:10102000C5E600BF134908B58B6803F00C03042B19
:1010300003D0082B03D0104808BD104808BD4A68EB
:101040004B68496813F4800314BF0C480A48C1F385
:10105000881118BF002302F03F02A1FB0001FFF737
:101060000FF9044B5B68C3F3014301335B00B0FB32
:10107000F3F008BD003802400024F40000127A00AA
:101080002DE9F0410D46044610B90120BDE8F0817C
:10109000444B1A6802F00F028A4228D321688F0756
:1010A0002DD4C80740D43F4B1A6802F00F02954276
:1010B00066D3226851076CD4130707D53A4A2169D1
:1010C000936823F4604343EAC1039360FFF7AAFFE8
:1010D000354B364A9B68C3F30313D35CD840344B7B
:1010E00018600020FFF762FC0020BDE8F081CAB262
:1010F0001A701B6803F00F039942C6D1CEE72A4B42
:1011000011F0040F1EBF9A6842F4E0529A600E0775
:1011100042BF9A6842F460429A609A68A06822F0DE
:10112000F00202439A60BCE762681F4B012A1DD19E
:101130001B6813F4003FA8D01B4EB36823F00303D1
:101140001343B360FFF77CFC41F288380746B3686D
:10115000626803F00C03B3EB820FA4D0FFF770FCBE
:10116000C01B4045F3D90320BDE8F081911E012941
:101170001B6802D813F0007FDDE713F0020FDAE7F7
:10118000EAB21A701B6803F00F039D427FF47DAF33
:101190008FE70549E0688B6823F4E05303438B60D5
:1011A0008AE700BF003C02400038024020210008CE
:1011B00000000020044B054A9B68C3F38223D35CE4
:1011C000034A1068D84070470038024030210008B8
:1011D00000000020044B054A9B68C3F34233D35CF4
:1011E000034A1068D8407047003802403021000898
:1011F000000000200368DA6822F49072DA605A690D
:1012000022F001025A61202380F83A307047000032
:101210002DE9F0470668C2683369C16923F4405379
:1012200013433361044683680069F26803436069CD
:1012300022F41642034322F00C020B431343F360E3
:101240007369A26923F440731343B1F5004F7361CE
:101250007A4B7CD19E4203D003F580639E4244D1F9
:10126000FFF7B8FF192505FB00F360684FF064092C
:101270004000B3FBF0F3B3FBF9F34FEA0318FFF7B9
:10128000A9FF636868435B00B0FBF3F7FFF7A2FFB9
:10129000636868435B00B0FBF3F3B3FBF9F309FB4E
:1012A0001373DB003233B3FBF9F35B0003F4F8771D
:1012B000FFF790FF626868435200B0FBF2FAFFF755
:1012C00089FF636868435B00B0FBF3F3B3FBF9F39A
:1012D00009FB13A3DB003233B3FBF9F303F007037D
:1012E00043443B44B360BDE8F087FFF763FF192533
:1012F00005FB00F360684FF064094000B3FBF0F3B6
:10130000B3FBF9F34FEA0318FFF754FF6368684330
:101310005B00B0FBF3F7FFF74DFF636868435B00CA
:10132000B0FBF3F3B3FBF9F309FB1373DB003233C8
:10133000B3FBF9F35B0003F4F877FFF73BFF626858
:1013400068435200B0FBF2FAFFF734FFB9E79E4260
:1013500002D03B4B9E4240D1FFF73CFF6768192506
:101360004FF0640905FB00F3BF00B3FBF7F3B3FBD9
:10137000F9F31F01FFF72EFF636868439B00B0FB82
:10138000F3F8FFF727FF636868439B00B0FBF3F3B4
:10139000B3FBF9F309FB13831B013233B3FBF9F3FE
:1013A00003F0F008FFF716FF626868439200B0FB95
:1013B000F2FAFFF70FFF636868439B00B0FBF3F39B
:1013C000B3FBF9F309FB13A31B013233B3FBF9F3AE
:1013D00003F00F0343EA080383E7FFF7EBFE6768B8
:1013E00019254FF0640905FB00F3BF00B3FBF7F3C9
:1013F000B3FBF9F31F01FFF7DDFE636868439B0051
:10140000B0FBF3F8FFF7D6FE636868439B00B0FBC0
:10141000F3F3B3FBF9F309FB13831B013233B3FB83
:10142000F9F303F0F008FFF7C5FE62686843920025
:10143000B0FBF2FAFFF7BEFEBDE700BF00100140AF
:1014400000140140F8B504460E4617461D462168B3
:101450000B6836EA030301D10020F8BD6B1CF7D0FE
:1014600095B92368DA6822F4D072DA605A6922F0FA
:1014700001025A61202384F8393084F83A3000237D
:1014800084F838300320F8BDFFF7DAFAC01B854234
:10149000DDD2E6E710B5044640B390F8393003F0EA
:1014A000FF021BB980F83820FFF7B8F9226824231F
:1014B00084F83930D36823F40053D3602046FFF713
:1014C000A7FE23681A6922F490421A615A6922F031
:1014D0002A025A61DA6842F40052DA6000202023BE
:1014E000E06384F8393084F83A3010BD012010BD33
:1014F0002DE9F0411F4690F83930202B04460D4667
:1015000090464FD100294AD0002A48D090F8383070
:10151000012B47D0012380F838300023C3632123F7
:1015200080F83930FFF78CFAA4F824800646A4F836
:101530002680E38C9BB26BB93B4632464021204665
:10154000FFF780FFB0B9202384F8393084F83800E1
:10155000BDE8F081E38C013B9BB2E384A368B3F563
:10156000805F32463B464FF0800120460ED1FFF7A8
:1015700069FF10B10320BDE8F0812B882268C3F316
:1015800008035360236943B90235D2E7FFF75AFFD6
:101590000028EFD123682A785A600135C9E7012075
:1015A000BDE8F0810220BDE8F08190F83930202BB1
:1015B00018D1A9B1A2B190F83830012B12D0C28451
:1015C0000162828400230168C363212280F83920EC
:1015D000CA6880F8383042F08002CA601846704706
:1015E000012070470220704790F83A30202B1CD120
:1015F000C9B1C2B190F83830012B16D0C2858285AE
:1016000000232222C36380F83A2002688162516974
:1016100080F8383041F001015161D16841F4907196
:10162000D16018467047012070470220704770470C
:1016300090F83A30222B10B532D1836801690268E4
:10164000B3F5805F836A1FD15268C9B9C2F308023B
:1016500023F8022B8362C48D013CA4B2C4856CB90B
:101660000368DA6822F49072DA605A6922F00102A3
:101670005A61202380F83A30FFF776F8002010BD39
:10168000D2B223F8012BE5E721B9591C52688162D7
:101690001A70E0E75268591C816202F07F02F7E796
:1016A000022010BD7047000003681A68D96870B541
:1016B000160704465D6907D196065AD58D0658D59A
:1016C000BDE87040FFF7B4BF15F0010502D111F479
:1016D000907F4ED0D30705D5CE0542BFE36B43F0D4
:1016E0000103E363500704D51DB1E36B43F002032C
:1016F000E363930704D51DB1E36B43F00403E36395
:10170000160704D51DB1E36B43F00803E363E36BF5
:10171000002B66D0950604D5880602D52046FFF733
:1017200087FF23685D69E26B1107204602D415F03C
:1017300040051AD0FFF75EFD23685A69520610D59E
:101740005A69606B22F040025A6150B1254B036523
:10175000FFF7F8F9002844D0606BBDE87040036DD6
:1017600018472046FFF79EFF70BDFFF79BFFE5631C
:1017700070BD160627D50D0625D594F83920212AE7
:101780002FD1A268B2F5805F226A17D11188C1F308
:1017900008015960216979B902322262E28C013A6A
:1017A00092B2E284EAB9DA6822F08002DA60DA689A
:1017B00042F04002DA6070BD0132EEE7511C216256
:1017C00012785A60EAE750060BD54A0609D5DA685E
:1017D00022F04002DA60202384F839302046FFF7F7
:1017E00026FF70BDE917000808B5806B0023C3858C
:1017F000C384FFF757FF08BDDFF834D0002103E0B2
:101800000C4B5B58435004310B480C4B42189A4226
:10181000F6D30B4A02E0002342F8043B094B9A42FC
:10182000F9D3FFF79DF800F017F8FEF7F9FE7047BF
:10183000000002207C210008000000207000002031
:101840007000002074010020FEE70000014B1868C2
:10185000704700BF0C00002070B50D4E0D4CA41B4E
:10186000A4100025A54209D10B4E0C4C00F03EFC03
:10187000A41BA4100025A54205D170BD56F8253043
:1018800098470135EEE756F8253098470135F2E7DD
:1018900074210008742100087421000878210008D0
:1018A00002440346934200D1704703F8011BF9E755
:1018B0000EB400B59CB04FF402711DABADF814101E
:1018C000029006906FF000410A48049107914FF68C
:1018D000FF7153F8042BADF816100068019302A9AC
:1018E00000F066F8029B00221A701CB05DF804EB51
:1018F00003B070470C0000202DE9F0478E689E422F
:1019000082460C469146984635D88A8912F4906FE3
:1019100031D0256809696F1A6569022305EB450511
:1019200095FBF3F508F101033B449D4238BF1D468A
:10193000530531D5294600F039FB064650B90C2332
:10194000CAF80030A38943F04003A3814FF0FF3071
:10195000BDE8F0873A46216900F0B4FAA38923F480
:10196000906343F08003A381266165613E44ED1BD3
:101970002660A5604646464528BF4646324649464B
:10198000206800F0AAFAA3689B1BA36023681E448A
:1019900026600020BDE8F0872A4600F065FB064679
:1019A0000028E1D12169504600F0B2FAC7E70000F3
:1019B0002DE9F04F9DB0804603938B891C060D46A0
:1019C00016460FD50B696BB9402100F0EFFA28607D
:1019D000286128B90C23C8F800304FF0FF30C5E06B
:1019E00040236B610023099320238DF82930302395
:1019F0008DF82A304FF0010B37463C4614F8013B76
:101A0000002B3CD1B7EB060A0BD053463246294691
:101A10004046FFF771FF013000F0A380099B53445B
:101A200009933B78002B00F09C8000234FF0FF329D
:101A300004930793059206938DF853301A93052269
:101A400021785048FEF7CCFB671C049BD8B9D90617
:101A500044BF20228DF853201A0744BF2B228DF853
:101A6000532022782A2A16D0079A00210A202746D6
:101A700001343B78303B092B51D9C9B111E0252BFA
:101A8000C0D02746B9E73F4A801A0BFA00F0184346
:101A900004903C46D3E7039A111D12680391002A73
:101AA00001DB079204E0524243F0020307920493E1
:101AB0003B782E2B0ED17B782A2B07F1010132D1F6
:101AC000039B1A1D1B680392002BB8BF4FF0FF3316
:101AD000023705932C4C397803222046FEF780FB11
:101AE00038B14023001B03FA00F0049B0343049326
:101AF0000137397825488DF8281006227E1CFEF71C
:101B00006FFB002835D0224BFBB9039B073323F032
:101B1000070308330393099B4B4409936CE700FBCD
:101B200002320121A3E70023059318460A240F4639
:101B300001313A78303A092A03D9002BCAD00590EE
:101B4000C8E704FB00200123F1E703AB00932A461A
:101B5000104B04A94046AFF30080B0F1FF3F81462F
:101B6000D9D1AB895B063FF538AF09981DB0BDE808
:101B7000F08F03AB00932A46064B04A9404600F0C1
:101B800081F8EAE7382100083E21000842210008D8
:101B900000000000F91800082DE9F04791461F46A3
:101BA0008A680B69DDF820809342B8BF1346C9F8F4
:101BB000003091F8432006460C4612B10133C9F8B3
:101BC00000302368990642BFD9F800300233C9F8C3
:101BD0000030256815F0060507D104F1190AE368FD
:101BE000D9F800209B1A9D4229DB94F843302268E3
:101BF000003318BF012392062ED404F14302394664
:101C00003046C047013021D02368E568D9F800206C
:101C100003F00603042B08BFAD1AA36822690CBFAA
:101C200025EAE57500259342C4BF9B1AED184FF0D5
:101C300000091A344D451BD10020BDE8F08701236F
:101C4000524639463046C047013003D14FF0FF308D
:101C5000BDE8F0870135C2E7E1185A1C302081F851
:101C60004300224494F8451082F843100233C4E73D
:101C70000123224639463046C0470130E6D009F1FB
:101C80000109D7E72DE9F04317460A7E85B06E2A91
:101C9000984606460C460C9B01F1430E00F0BC80B2
:101CA0001AD8632A2ED00AD8002A00F0C880582AF1
:101CB00000F08A8004F1420584F842202AE0642A78
:101CC00001D0692AF6D121681A6811F0800F23D05B
:101CD000111D1960136827E0732A00F0B48008D83A
:101CE0006F2A2AD0702AE5D10A6842F020020A60E1
:101CF00003E0752A21D0782ADCD1782284F84520A7
:101D00006E4964E01A6801F14205111D19601368FB
:101D100084F842300123A3E011F0400F02F10401E6
:101D20001960D7D0B2F90030002B03DA2D225B42C4
:101D300084F8432062490A2217E02068196810F0ED
:101D4000800F03D0081D18600B6806E010F0400FEC
:101D500001F104001860F7D00B8859496F2A14BFAD
:101D60000A220822002084F843006568A560002D3F
:101D7000C0F29C80206820F004002060002B3FD13E
:101D8000002D40F095807546082A0BD12368DA07AC
:101D900008D5236962689A42DEBF302305F8013C0A
:101DA00005F1FF35AEEB05032361CDF800803B461E
:101DB00003AA21463046FFF7EFFE013055D14FF020
:101DC000FF3005B0BDE8F08381F845203C4922682A
:101DD000186812F0800F00F104051D6001D003683F
:101DE00002E05506FBD50388D00744BF42F020022D
:101DF00022601BB9226822F0200222601022B1E783
:101E00007546B3FBF2F002FB1033CB5C05F8013DE5
:101E100003460028F5D1B7E708681A68496910F049
:101E2000800F04D0101D18601368196007E010F0CF
:101E3000400F02F1040018601368F6D019800023E7
:101E400023617546B1E71A68111D1960156862684B
:101E500000212846FEF7C4F908B1401B60606368A2
:101E60002361002384F843309FE723692A463946DB
:101E70003046C0470130A2D023689B0707D5002514
:101E800004F11909E368039A9B1A9D4205DBE06897
:101E9000039B9842B8BF184693E701234A46394648
:101EA0003046C04701308AD00135EBE7002BA7D17F
:101EB0000B7884F8423004F1420565E75A210008A6
:101EC0004921000810B5431E0A44914200D110BDBB
:101ED00011F8014B03F8014FF7E7884210B501EB09
:101EE000020303D8421E99420CD110BD9842F9D288
:101EF0008118D21AD34200D110BD13F8014D01F858
:101F0000014DF7E711F8014B02F8014FEBE7000034
:101F100038B50546002945D051F8043C0C1F002B6C
:101F2000B8BFE41800F0D6F81F4A1368104633B95A
:101F3000636014602846BDE8384000F0CCB8A34286
:101F40000CD921686218934204BF1A685B68636009
:101F500004BF521822600460ECE713465A680AB1C5
:101F6000A242FAD919685818A0420BD1206801443E
:101F7000581882421960DDD1106852685A600144D5
:101F80001960D7E702D90C232B60D3E7206821180A
:101F90008A4204BF11685268626004BF0918216058
:101FA0005C60C7E738BD00BF9400002070B5CD1C51
:101FB00025F0030508350C2D38BF0C25002D0646ED
:101FC00001DBA94203D90C233360002070BD00F06F
:101FD00081F8234A1468214691B9224C23681BB921
:101FE000304600F067F820602946304600F062F87D
:101FF000431C26D10C233360304600F06CF8E4E734
:102000000B685B1B1AD40B2B0FD90B60CD50CC186F
:10201000304600F060F804F10B00231D20F00700AB
:10202000C31A1BD05A42E25070BD8C420DBF636888
:102030004B686360136018BF0C46E9E70C464968BB
:10204000CAE7C41C24F00304A04205D0211A30467C
:1020500000F030F80130CDD02560D9E770BD00BF69
:102060009400002098000020F8B5074614460E465C
:1020700021B91146BDE8F840FFF798BF22B9FFF734
:1020800047FF25462846F8BD00F026F884420FD9C0
:1020900021463846FFF78AFF05460028F2D0314630
:1020A0002246FFF70FFF31463846FFF731FFE9E7D9
:1020B0003546E7E738B5064C002305460846236059
:1020C000FEF734FC431C02D1236803B12B6038BDFA
:1020D000700100207047704751F8040C0028A0F1EF
:1020E0000400BCBF0B58C01870470000F8B500BF13
:1020F000F8BC08BC9E467047F8B500BFF8BC08BCE9
:042100009E46704740
:102104002564202564200A0D00AAB40601010000FC
:102114000000000000000000FFFF06AB000000000C
:102124000000000001020304060708090000000083
:1021340001020304232D302B2000686C4C006566DB
:102144006745464700303132333435363738394104
:10215400424344454600303132333435363738391A
:0821640061626364656600001E
:08216C0044E1FF7F01000000C7
:04217400C501000899
:04217800A1010008B9
:10217C000024F400010000001000000010000020FA
:10218C000000000000000000000000000000000043
:10219C000000000000000000000000000000000033
:1021AC000000000000000000000000000000000023
:1021BC000000000000000000000000000000000013
:1021CC000000000000000000000000000000000003
:1021DC0000000000000000000000000000000000F3
:04000005080017F9DF
:00000001FF
